:020000040800F2
:1000000000000220490C0008990C0008990C000817
:10001000990C0008990C0008990C000800000000D9
:10002000000000000000000000000000990C000823
:10003000990C000800000000990C0008990C0008B9
:10004000990C0008990C0008990C0008990C0008FC
:10005000990C0008990C0008990C0008990C0008EC
:10006000990C0008990C0008990C0008990C0008DC
:10007000990C0008990C0008990C0008990C0008CC
:10008000990C0008990C0008990C0008990C0008BC
:10009000990C0008990C0008990C0008990C0008AC
:1000A000990C0008990C0008990C0008990C00089C
:1000B00051020008990C0008990C0008990C0008DE
:1000C000990C0008990C0008990C0008990C00087C
:1000D000990C0008990C0008990C0008990C00086C
:1000E000990C0008990C0008990C0008990C00085C
:1000F000990C0008990C0008990C0008990C00084C
:10010000990C0008990C0008990C0008990C00083B
:10011000990C0008990C0008990C0008990C00082B
:10012000990C0008990C0008990C0008990C00081B
:10013000990C0008990C0008990C0008990C00080B
:10014000990C0008990C0008990C0008990C0008FB
:10015000990C0008990C0008990C0008990C0008EB
:10016000990C0008990C0008990C0008990C0008DB
:10017000990C0008990C0008990C0008990C0008CB
:08018000990C0008990C00081D
:1001880010B5054C237833B9044B13B10448AFF3C9
:1001980000800123237010BD5804002000000000D7
:1001A800900F000808B5064B1BB106480649AFF387
:1001B80000800648036813B1054B03B1984708BD92
:1001C80000000000900F00085C0400205404002088
:1001D80000000000154B002B08BF134B9D46A3F5EC
:1001E800803A00218B460F461348144A121A00F031
:1001F80089FD0F4B002B00D098470E4B002B00D0E9
:1002080098470020002104000D000D48002802D066
:100218000C4800F043FE00F04DFD2000290000F0DE
:10022800D1FC00F037FD00BF00000800000000000E
:1002380000000000000000005804002074040020A2
:10024800A50E0008B10E00084FF080431B8ADB079B
:1002580004D5054B5A6982F400525A614FF0804325
:1002680000221A82704700BF000C0240704700BF8E
:1002780082B00190019B5A1E0192002BFAD102B064
:10028800704700BF354B36481968002241F001011C
:1002980019609A60196821F0847121F4803119601D
:1002A8005860196882B021F480211960DA600092E0
:1002B80001921A6842F480321A601A4603E0009BE1
:1002C800B3F5A06F09D0136803F400330193009BC2
:1002D80001330093019B002BF1D0204B1B6813F4D2
:1002E800003318BF01230193019B012B05D01D4B3F
:1002F8004FF000629A6002B07047184B1A4A186CA7
:100308001A4940F080501864106840F4804010602A
:100318009A689A609A6842F400429A609A6842F42D
:10032800A0529A6059601A6842F080721A601946A1
:100338000B680A4A9B01FBD50D4B40F20561196019
:10034800936823F003039360936843F00203936078
:10035800936803F00C03082BFAD1C8E70038024071
:100368001030002400ED00E0007000400854400701
:10037800003C0240154B9A6802F00C02042A23D074
:10038800082A09D0124A1149124B8968C1F303118E
:10039800595CCA401A617047586859685B684202DC
:1003A8004CBF0D4A0A4A01F03F01C3F38813B2FB60
:1003B800F1F202FB03F2054B5B68C3F3014301331F
:1003C8005B00B2FBF3F2DEE7034ADCE700380240E9
:1003D8000024F4000400002040787D0110B50820B6
:1003E80082B0012100F094F94FF4704100230322F8
:1003F8000091012406488DF8044069468DF80630BE
:100408008DF807308DF8052000F028FB02B010BDEC
:10041800000C02400146014800F0AEBB000C02404F
:100428000146014800F0AABB000C0240C00F0008BA
:100438000000002054040020580400207404002008
:100448004FF46053C4F202030022196841F001011D
:1004580019609A60186843F2100120F08470C2F2A3
:10046800004120F4803018605960196821F4802117
:100478001960DA60704700BF43F60203C4F2020352
:1004880000221A701870704782B000234FF460522F
:100498000193C4F2020213689B030CD5019B01333C
:1004A8000193019B4FF46053C4F202031868C0F330
:1004B800404002B07047019B01330193019BB3F5A3
:1004C800A06FE8D1EEE700BF4FF46053C4F2020317
:1004D8001A6822F0F80242EAC0001860704700BFAC
:1004E8000023C4F247231860704700BF43F6700327
:1004F800C4F20203002201281A701A7004D00428DA
:1005080001D105221A707047187070474FF468635C
:10051800C4F247231860704730B40143029D41EA92
:1005280082125B084FF46054013B42EA0561C4F251
:10053800020441EA0341616030BC70476023C4F2A1
:1005480047231860704700BF4FF460538001C4F21E
:10055800020340EA0171C3F8841070476823C4F2AB
:1005680047231860704700BF4C23C4F24723186024
:10057800704700BF4FF46053C4F202039A6822F038
:10058800EC62104301439960704700BF4FF4605319
:10059800C4F202039A6822F078421043014399603A
:1005A800704700BF4FF46053C4F202039A6822F008
:1005B80003021043986070474FF46053C4F202037B
:1005C800986800F00C0070474FF46053C4F20203BF
:1005D8009A6822F0F0021043986070474FF4605315
:1005E800C4F202039A6822F4E052104398607047FC
:1005F8004FF46053C4F202039A6822F4604242EA5C
:10060800C0009860704700BF4FF46053C4F2020303
:1006180010B49A6802F00C02042A20D0082A24D0C8
:100628004FF41052C0F2F40202604FF46053C4F267
:1006380002031F499C68C4F303140C5DE240426046
:100648009C68C4F382240C5D22FA04F484609B68DD
:10065800C3F34233CB5CDA40C26010BC704747F644
:100668004002C0F27D120260DFE75C68596814F44A
:10067800800F5C6815BF47F640034FF41053C0F273
:100688007D13C0F2F40301F03F01B3FBF1F24FF424
:100698006053C4F20203C4F388145B68C3F30143D4
:1006A800013302FB04F25B00B2FBF3F20260BCE729
:1006B8001800002000F44073B3F5407F0CD14FF4CC
:1006C8006053C4F2020320F070419A6821F440712B
:1006D80022F4F8120A439A604FF46053C4F20203FA
:1006E800C0F30B001A6F10431867704740F63C635D
:1006F800C4F24723186070474FF46463C4F2472379
:10070800186070474FF4AE73C4F2472318607047FF
:100718004FF46053C4F202031A6B19B922EA0000BD
:100728001863704710431863704700BF4FF4605355
:10073800C4F202035A6B19B922EA000058637047E1
:1007480010435863704700BF4FF46053C4F202036C
:100758009A6B19B922EA00009863704710439863AE
:10076800704700BF4FF46053C4F202031A6C19B902
:1007780022EA00001864704710431864704700BFED
:100788004FF46053C4F202035A6C19B922EA00000C
:100798005864704710435864704700BF4FF4605363
:1007A800C4F202031A6919B922EA000018617047F5
:1007B80010431861704700BF4FF46053C4F202033E
:1007C8005A6919B922EA0000586170471043586104
:1007D800704700BF4FF46053C4F202039A6919B915
:1007E80022EA00009861704710439861704700BF83
:1007F8004FF46053C4F202031A6A19B922EA0000DE
:100808001862704710431862704700BF4FF4605376
:10081800C4F202035A6A19B922EA00005862704702
:1008280010435862704700BF4FF46053C4F202038C
:100838001A6D19B922EA0000186570471043186547
:10084800704700BF4FF46053C4F202035A6D19B9E0
:1008580022EA00005865704710435865704700BF8A
:100868004FF46053C4F202039A6D19B922EA0000EA
:100878009865704710439865704700BF4FF4605300
:10088800C4F202031A6E19B922EA0000186670470A
:1008980010431866704700BF4FF46053C4F2020358
:1008A8005A6E19B922EA0000586670471043586614
:1008B800704700BF43F60D03C4F202031A7819B952
:1008C80022EA00001870704710431870704700BF84
:1008D8004309012B0ED0022B4FF46053C4F20203DC
:1008E8000CBF1B6F5B6F00F01F0023FA00F000F0D5
:1008F800010070474FF46053C4F202031B68F2E72B
:100908004FF46053C4F202035A6F42F080725A6780
:10091800704700BF4FF46053C4F20203DB6818420B
:100928000CBF00200120704743F60E03C4F20203F7
:100938001870704708B50023C4F2020398423CD0EF
:100948004FF48063C4F20203984240D04FF400632E
:10095800C4F20203984244D04FF44063C4F2020345
:10096800984248D04FF48053C4F2020398424CD0C6
:100978004FF4A053C4F20203984250D04FF4C0532E
:10098800C4F20203984254D04FF4E053C4F2020375
:10099800984258D04FF40053C4F20203984200D052
:1009A80008BD4FF480700121FFF7F8FE4FF4807006
:1009B8000021BDE80840FFF7F1BE01200146FFF71E
:1009C800EDFE01200021BDE80840FFF7E7BE022048
:1009D8000121FFF7E3FE02200021BDE80840FFF7F0
:1009E800DDBE04200121FFF7D9FE04200021BDE867
:1009F8000840FFF7D3BE08200121FFF7CFFE0820EB
:100A08000021BDE80840FFF7C9BE10200121FFF70B
:100A1800C5FE10200021BDE80840FFF7BFBE20201A
:100A28000121FFF7BBFE20200021BDE80840FFF7A9
:100A3800B5BE40200121FFF7B1FE40200021BDE8EE
:100A48000840FFF7ABBE80200121FFF7A7FE8020FA
:100A58000021BDE80840FFF7A1BE00BF00222DE934
:100A6800F00713460E6801274FF0030804E001332E
:100A7800102B02F102022CD007FA03F404EA06054F
:100A8800A542F4D1D0F8009091F804C008FA02F415
:100A9800E44304EA0909C0F80090D0F800900CFA81
:100AA80002FA0CF1FF3C4AEA0909BCF1010FC0F84F
:100AB800009011D9C56891F807C02C40C460C5687A
:100AC8000CFA02F401332C43102BC46002F1020229
:100AD800D2D1BDE8F0077047D0F808A091F805908A
:100AE80091F806C004EA0A0AC0F808A0D0F808A0DD
:100AF80009FA02F949EA0A09C0F80890D0F80490FE
:100B080029EA0505456045680CFA03FC1FFA8CFCC8
:100B18004CEA05054560CDE700234FF6FF720260F9
:100B2800037143718371C371704700BF82B04FF482
:100B380080330193019B0B430193019BC361C16106
:100B4800019BC361C3690193C369019302B07047F4
:100B5800036919420CBF002001207047006980B268
:100B6800704700BF436919420CBF0020012070473D
:100B7800406980B2704700BF018370474183704766
:100B88000AB9418370470183704700BF41617047CC
:100B98004369594041617047CB08083301F00701A8
:100BA80030B4890050F823500F248C4025EA0404FF
:100BB80040F8234050F823408A40144340F823402B
:100BC80030BC704708B5FFF709FC1A484FF480514C
:100BD800FFF7D2FF184B1A46013B002AFBD11548F4
:100BE8004FF40051FFF7C8FF134B1A46013B002A88
:100BF800FBD110484FF48041FFF7BEFF0E4B1A4659
:100C0800013B002AFBD10B484FF40041FFF7B4FF2A
:100C18000A4B1A46013B002AFBD106484FF47041A3
:100C2800FFF7ACFF6FF07F431A46013B002AFBD168
:100C3800CBE700BF000C0240FFFF3F00FFFF7F0033
:100C4800002100F004B80D4B5B58435004310C48A8
:100C58000C4B42189A42FFF4F6AF0B4A00F003B867
:100C6800002342F8043B094B9A42FFF4F9AFFFF71F
:100C780009FB00F01FF8FFF7A5FF7047C00F000839
:100C880000000020540400205804002074040020B0
:100C9800FFF7FEBF08B50021044600F087F8044BB3
:100CA8001868C36B03B19847204600F07BF900BF72
:100CB8008C0F000870B50F4E0F4D761BB61007D07D
:100CC800043D0024013455F8043F9847A642F9D161
:100CD8000A4E0B4D761B00F059F9B61008D0043DAA
:100CE8000024013455F8043F9847A642F9D170BD55
:100CF80070BD00BFB40F0008B40F0008BC0F000897
:100D0800B40F0008F0B4840743D0541E002A3ED024
:100D1800CDB2034603E0621E002C38D0144603F817
:100D2800015B9A07F7D1032C2AD9CDB245EA0525EC
:100D38000F2C45EA054515D9A4F110073F0903F121
:100D4800100606EB07161A46156055609560D560C3
:100D58001032B242F8D104F00F040137032C03EB30
:100D680007130DD91E462246043A032A46F8045BA7
:100D7800FAD8221F22F003020432134404F00304B9
:100D88002CB1C9B21C4403F8011BA342FBD1F0BC2F
:100D9800704714460346C6E7024B13B1024800F0F9
:100DA8007DB8704700000000B10E00082DE9F04F33
:100DB800384B1B6885B003F5A472019302900F4667
:100DC8000392019BD3F84881B8F1000F1CD0DDF8DD
:100DD8000CB04FF00109DA46D8F804305C1E11D483
:100DE80008F188059E1C05EB830508EB860677B19C
:100DF800EB6FBB420BD0013C631CA5F10405A6F1C7
:100E08000406F4D1244A7ABB05B0BDE8F08FD8F8BF
:100E1800042056F8043C013AA24216BF0022C8F842
:100E2800044046F8042C002BE5D0D8F88811D8F8EF
:100E380004B009FA04F20A4210D0D8F88C110A4218
:100E48000ED1029855F8041C9847D8F804305B4531
:100E5800B7D1DAF800304345CDD0B2E79847F4E788
:100E680055F8040C9847F0E7D8F804306BB9D8F86F
:100E7800003063B14046CAF80030AFF30080DAF8BA
:100E88000080B8F1000FA7D1BEE7D8F80030C246FD
:100E98009846F6E78C0F0008000000000146002085
:100EA8000246034600F018B838B5094D094C641BD2
:100EB800A41018BF05EB840505D0013C55F8043D86
:100EC8009847002CF9D1BDE8384000F065B800BF5C
:100ED800BC0F0008C00F0008F0B5274C2668D6F8EC
:100EE800484185B00746002C41D065681F2D1EDD9E
:100EF800224818B94FF0FF3005B0F0BD4FF4C87064
:100F0800039102920193AFF300800399029A019B27
:100F180004460028EED0D6F84851256000206060CD
:100F28000546C6F84841C4F88801C4F88C013FB9A1
:100F3800AB1C00200135656044F8231005B0F0BDF6
:100F480004EB85004FF0010CC0F88820D4F88861C4
:100F58000CFA05F21643022FC4F88861C0F808316C
:100F6800E6D1D4F88C311A43C4F88C21E0E706F5B1
:100F7800A674C6F84841B8E78C0F000800000000C6
:100F8800430000002800002000000000F8B500BF62
:100F9800F8BC08BC9E467047F8B500BFF8BC08BC52
:040FA8009E467047AA
:080FAC0030F2FF7F010000009C
:080FB400A10D0008AD010008C9
:040FBC00890100089F
:100FC0000000000000000000000000000102030417
:100FD00006070809007A030A000000000102030462
:100FE00001020304060708090000000014030020A2
:100FF0007C030020E403002000000000000000004B
:1010000000000000000000000000000000000000E0
:10101000000000000000000000000000880F000831
:1010200000000000000000000000000000000000C0
:1010300000000000000000000000000000000000B0
:1010400000000000000000000000000000000000A0
:101050000000000000000000000000000000000090
:101060000000000000000000000000000000000080
:101070000000000000000000000000000000000070
:101080000000000000000000000000000000000060
:1010900001000000000000000E33CDAB34126DE6FD
:1010A000ECDE05000B000000000000000000000066
:1010B0000000000000000000000000000000000030
:1010C0000000000000000000000000000000000020
:1010D0000000000000000000000000000000000010
:1010E0000000000000000000000000000000000000
:041410002800002090
:0414140000000000D4
:0400000508000C499A
:00000001FF
